:020000000A28CC
:10000800FE00030EF1000A08F200AC290B28F901E2
:10001800FA01831320308400623004228301D92935
:10002800F701F7010B3083120313E2006208F300B3
:100038007708C421293E8400831300088312031320
:10004800E300840A0008E4006408803AFF00803076
:100058007F02031D31280130630203183428352834
:1000680094280B3083120313E2006208F300770828
:10007800C421253E84008313000883120313E30080
:10008800840A0008E4000B30E5006508F3007708EF
:10009800C421293E8400831203136308831380005C
:1000A800840A640880000B30E2006208F3007708D5
:1000B800C421273E840083130003031D6428652898
:1000C8007C280B3083120313E2006208F3007708E0
:1000D800C421273E8400831380010B30831203134D
:1000E800E2006208F3007708C421203E7A21BE2886
:1000F8000B3083120313E2006208F3007708C4216F
:10010800273E840083138001800A0B308312031377
:10011800E2006208F3007708C421203E7A21BE2855
:100128000B3083120313E2006208F3007708C4213E
:10013800293E84008313000883120313E300840A12
:100148000008E40063089C3EE50064080318013ECB
:10015800FF3EE6000B30E7006708F3007708C4218C
:10016800293E840083120313650883138000840AE0
:1001780066088000013083120313E2006208F70763
:1001880006307702031CC928CA2816280800F70178
:10019800003083120313A1000530A0000030A30033
:1001A8008530A200A401A40A6430A5000030A6008E
:1001B800A701A801A80AA901AA010030AC000530CE
:1001C800AB000030AE008530AD000230E2006208BE
:1001D800AF006430B0000030B100B201B301B30A1F
:1001E800B401B5010030B7000530B6000030B900E1
:1001F8008530B8000430E2006208BA006430BB0001
:100208000030BC00BD01BE01BE0ABF01C001003004
:10021800C2000530C1000030C4008530C300103072
:10022800E2006208C5006430C6000030C700C8019B
:10023800C901C90ACA01CB010030CD000530CC0084
:100248000030CF008530CE004030E2006208D00098
:100258006430D1000030D200D301D401D40AD501D2
:10026800D6010030D8000630D7000030DA008630DA
:10027800D9001030E2006208DB00F430DC00013005
:10028800DD00DE01DF01DF0AE001E101F7010B30EB
:10029800E2006208F3007708C421243E8400831337
:1002A800000983120313E3000B30E4006408F30031
:1002B8007708C421223E84008313000883120313A5
:1002C800E500840A0008E600650884008317661CB8
:1002D8008313630880050130E2006208F7070630DF
:1002E8007702031C782979294B290800F60076083B
:1002F800073E840083130008031983298429982959
:100308007608043E84000008F3007608840000089C
:10031800F400840A0008F500740884008317751C2B
:10032800831373088004AB297608043E840000090F
:10033800F300760884000008F400840A0008F50039
:10034800740884008317751C8313730880050800DC
:100358008B1EAF29B029BD290B1DB329B429BD298E
:1003680006308312031381000B110130F00070086E
:10037800FA0772088A00710E8300FE0E7E0E0900CD
:10038800F600F501761CC929CA29CE297308F4009C
:100398007408F5070310F30D0310F60C7608031D17
:1003A800D629D729C629750808000C220330F80079
:1003B800F80BDC2964307A02031CE329E429DE29DE
:1003C8001222FA01DE290A288316031381178112E3
:1003D80081110108F839013881008B160630831223
:1003E800031381000800831603138E150D30F400E3
:1003F800FB30F300F30BFE29F40BFE29032A080057
:1004080064008001840A0406031900340406052ADE
:10041800F721E821CB200B178B17080014200800C0
:02400E00383F39
:00000001FF
