:020000000A28CC
:10000800FE00030EF1000A08F200AF290B28F801E0
:10001800F901FA0183132030840062300A22830137
:10002800DC29F701F7010B3083120313E2006208A1
:10003800F3007708C721293E840083130008831240
:100048000313E300840A0008E4006408803AFF0010
:1000580080307F02031D32280130630203183528DF
:10006800362895280B3083120313E2006208F30048
:100078007708C721253E84008313000883120313E1
:10008800E300840A0008E4000B30E5006508F3008B
:100098007708C721293E840083120313630883135A
:1000A8008000840A640880000B30E2006208F300D4
:1000B8007708C721273E840083130003031D6528A2
:1000C80066287D280B3083120313E2006208F300D0
:1000D8007708C721273E8400831380010B308312E1
:1000E8000313E2006208F3007708C721203E7D2150
:1000F800BF280B3083120313E2006208F30077086D
:10010800C721273E840083138001800A0B308312A5
:100118000313E2006208F3007708C721203E7D211F
:10012800BF280B3083120313E2006208F30077083C
:10013800C721293E84008313000883120313E300B8
:10014800840A0008E40063089C3EE500640803187C
:10015800013EFF3EE6000B30E7006708F300770832
:10016800C721293E84008312031365088313800086
:10017800840A66088000013083120313E2006208D3
:10018800F70706307702031CCA28CB2817287A08F5
:1001980085000800F7017A3083120313A0000030AD
:1001A800A1000030A3008530A200A401A40A643095
:1001B800A5000030A600A701A801A80AA901AA0164
:1001C8007A30AB000030AC000030AE008530AD00B6
:1001D8000230E2006208AF00C830B0000030B10061
:1001E800B201B20AB301B401B5017A30B6000030E9
:1001F800B7000030B9008530B8000430E20062086A
:10020800BA006430BB000030BC00BD01BE01BE0AAC
:10021800BF01C0017A30C1000030C2000030C40004
:100228008530C3001030E2006208C500C830C6003F
:100238000030C700C801C901C90ACA01CB017A3018
:10024800CC000030CD000030CF008530CE004030EB
:10025800E2006208D0006430D1000030D200D3013F
:10026800D30AD401D501D6010030D8000630D70012
:100278000030DA008630D9001030E2006208DB0076
:10028800F430DC000130DD00DE01DF01DF0AE001CF
:10029800E101F7010B30E2006208F3007708C7219B
:1002A800243E84008313000983120313E3000B30F8
:1002B800E4006408F3007708C721223E8400831312
:1002C800000883120313E500840A0008E6006508A5
:1002D80084008317661C8313630880050130E200DD
:1002E8006208F70706307702031C7B297C294E2910
:1002F8000800F6007608073E8400831300080319F7
:10030800862987299B297608043E84000008F30083
:10031800760884000008F400840A0008F5007408D0
:1003280084008317751C831373088004AE2976082C
:10033800043E84000009F300760884000008F400F5
:10034800840A0008F500740884008317751C831359
:100358007308800508008B1EB229B329C0290B1D1C
:10036800B629B729C02906308312031381000B115F
:100378000130F0007008F90772088A00710E8300D6
:10038800FE0E7E0E0900F600F501761CCC29CD295B
:10039800D1297308F4007408F5070310F30D03104E
:1003A800F60C7608031DD929DA29C9297508080029
:1003B8001222023083120313E800E80BE129E42932
:1003C80064307902031CE929EA29E4291822F90191
:1003D800E4290A2883160313811781128111010861
:1003E800F839013881008B16063083120313810017
:1003F8000800831603138E150D30F400FB30F3004C
:10040800F30B042AF40B042A092A0800640080016B
:10041800840A04060319003404060B2AFD21EE2180
:0C042800CE200B178B17080015200800D1
:02400E00383F39
:00000001FF
