:020000000A28CC
:10000800FE00030EF1000A08F200A0290B28773041
:1000180084007B30FB218313203084005C30FB217B
:100028008301CD2983120313E201E2010A30DC00C7
:100038005C08F3006208B821283E84008313000896
:1000480083120313DD00840A0008DE005E08803A8C
:10005800FF0080307F02031D332801305D02031842
:100068003628372896280A3083120313DC005C08E8
:10007800F3006208B821243E840083130008831229
:100088000313DD00840A0008DE000A30DF005F0881
:10009800F3006208B821283E8400831203135D0828
:1000A80083138000840A5E0880000A30DC005C0844
:1000B800F3006208B821263E840083130003031D61
:1000C800662867287E280A3083120313DC005C0840
:1000D800F3006208B821263E8400831380010A30A9
:1000E80083120313DC005C08F3006208B821203E89
:1000F8007E21C0280A3083120313DC005C08F30059
:100108006208B821263E840083138001800A0A30E1
:1001180083120313DC005C08F3006208B821203E58
:100128007E21C0280A3083120313DC005C08F30028
:100138006208B821283E8400831300088312031341
:10014800DD00840A0008DE005D089C3EDF005E08D2
:100158000318013EFF3EE0000A30E1006108F300A9
:100168006208B821283E8400831203135F088313B2
:100178008000840A60088000013083120313DC00C9
:100188005C08E20706306202031CCB28CC281A2838
:100198007A08850079088600080083120313E101B4
:1001A8007A30DC005C08A0000030A2008530A10095
:1001B800A301A30A6430A4000030A500A601A7018A
:1001C800A70AA801A9017A30DC005C08AA0000305F
:1001D800AC008530AB000230DC005C08AD00C830F4
:1001E800AE000030AF00B001B00AB101B201B301F6
:1001F8007A30DC005C08B4000030B6008530B50009
:100208000430DC005C08B7006430B8000030B90086
:10021800BA01BB01BB0ABC01BD017930DC005C0836
:10022800BE000030C0008630BF00C101C10AC8301E
:10023800C2000030C300C401C501C50AC601C70118
:100248007A30DC005C08C8000030CA008530C9007C
:100258004030DC005C08CB006430CC000030CD00BE
:10026800CE01CE0ACF01D001D1017930DC005C0883
:10027800D2000030D4008630D3001030DC005C0897
:10028800D500F430D6000130D700D801D901D90AF9
:10029800DA01DB01E1010A30DC005C08F3006108E7
:1002A800B821233E84008313000983120313DD0061
:1002B8000A30DE005E08F3006108B821213E8400A0
:1002C8008313000883120313DF00840A0008E00088
:1002D8005F0884008317601C83135D088005013064
:1002E800DC005C08E10706306102031C7C297D29DB
:1002F8004F290800F4007408063E840083130008A0
:1003080003198729882994297408033E8400000862
:10031800F3007408840000088400730880049F298F
:100328007408033E84000009F30074088400000880
:1003380084007308800508008B1EA329A429B1290D
:100348000B1DA729A829B1290630831203138100A0
:100358000B110130F0007008F80772088A00710E5E
:100368008300FE0E7E0E0900F600F501761CBD29FD
:10037800BE29C2297308F4007408F5070310F30DA9
:100388000310F60C7608031DCA29CB29BA2975086B
:1003980008000322023083120313E300E30BD2297F
:1003A800D52964307802031CDA29DB29D5290922EA
:1003B800F801D5290A2883160313811781128111A0
:1003C8000108F839013881008B16063083120313AF
:1003D80081000800831603138E150D30F400FB30DE
:1003E800F300F30BF529F40BF529FA29080064004A
:1003F8008001840A0406031900340406FC29EE214E
:0E040800DF21D1200B178B17080016200800EB
:02400E00383F39
:00000001FF
